{
  "transactions": [
    {
      "hash": "0x351c179afda3936d004e8214cba34a2d6bf727a4679e51f2f7cd7826484ef6bb",
      "transactionType": "CALL",
      "contractName": null,
      "contractAddress": "0x245caf8ae9aba95cb5fa51705d51a4e75f73cf2b",
      "function": "mintNFT(address,string)",
      "arguments": [
        "0xEEd4CE443FE6e5b7372f87444d5d263A349797F8",
        "ipfs://bafkreihkgu6bdz35atnjg5rtjpmi3i7klo6tprvl4jvx45tuamjwciajma/1.json"
      ],
      "transaction": {
        "from": "0xeed4ce443fe6e5b7372f87444d5d263a349797f8",
        "to": "0x245caf8ae9aba95cb5fa51705d51a4e75f73cf2b",
        "gas": "0x36040",
        "value": "0x0",
        "input": "0xeacabe14000000000000000000000000eed4ce443fe6e5b7372f87444d5d263a349797f800000000000000000000000000000000000000000000000000000000000000400000000000000000000000000000000000000000000000000000000000000049697066733a2f2f6261666b726569686b67753662647a333561746e6a673572746a706d693369376b6c6f36747072766c346a767834357475616d6a776369616a6d612f312e6a736f6e0000000000000000000000000000000000000000000000",
        "nonce": "0x8",
        "chainId": "0x279f"
      },
      "additionalContracts": [],
      "isFixedGasLimit": false
    }
  ],
  "receipts": [],
  "libraries": [],
  "pending": [
    "0x351c179afda3936d004e8214cba34a2d6bf727a4679e51f2f7cd7826484ef6bb"
  ],
  "returns": {},
  "timestamp": 1749899776,
  "chain": 10143,
  "commit": "2375e4b"
}