{
  "transactions": [
    {
      "hash": "0x591057d846e0e394b268e7f4606f659af9ddb010f43cbcd0e760a775dc2810d6",
      "transactionType": "CALL",
      "contractName": null,
      "contractAddress": "0x245caf8ae9aba95cb5fa51705d51a4e75f73cf2b",
      "function": "mintNFT(address,string)",
      "arguments": [
        "0xEEd4CE443FE6e5b7372f87444d5d263A349797F8",
        "ipfs://bafybeibrcc4wz23kaxuwkhyf6iz4bg3bn3pkrbczstao4kxsmnwuk3eke4/1.json"
      ],
      "transaction": {
        "from": "0xeed4ce443fe6e5b7372f87444d5d263a349797f8",
        "to": "0x245caf8ae9aba95cb5fa51705d51a4e75f73cf2b",
        "gas": "0x36040",
        "value": "0x0",
        "input": "0xeacabe14000000000000000000000000eed4ce443fe6e5b7372f87444d5d263a349797f800000000000000000000000000000000000000000000000000000000000000400000000000000000000000000000000000000000000000000000000000000049697066733a2f2f626166796265696272636334777a32336b617875776b68796636697a34626733626e33706b7262637a7374616f346b78736d6e77756b33656b65342f312e6a736f6e0000000000000000000000000000000000000000000000",
        "nonce": "0x7",
        "chainId": "0x279f"
      },
      "additionalContracts": [],
      "isFixedGasLimit": false
    }
  ],
  "receipts": [
    {
      "status": "0x1",
      "cumulativeGasUsed": "0x9513dd",
      "logs": [
        {
          "address": "0x245caf8ae9aba95cb5fa51705d51a4e75f73cf2b",
          "topics": [
            "0xddf252ad1be2c89b69c2b068fc378daa952ba7f163c4a11628f55a4df523b3ef",
            "0x0000000000000000000000000000000000000000000000000000000000000000",
            "0x000000000000000000000000eed4ce443fe6e5b7372f87444d5d263a349797f8",
            "0x0000000000000000000000000000000000000000000000000000000000000003"
          ],
          "data": "0x",
          "blockHash": "0xce69ee0b5f6cb47424fc29794882365f6471bcc85db5685b4379878c26cefc32",
          "blockNumber": "0x148c532",
          "blockTimestamp": "0x684d5895",
          "transactionHash": "0x591057d846e0e394b268e7f4606f659af9ddb010f43cbcd0e760a775dc2810d6",
          "transactionIndex": "0x33",
          "logIndex": "0xa2",
          "removed": false
        },
        {
          "address": "0x245caf8ae9aba95cb5fa51705d51a4e75f73cf2b",
          "topics": [
            "0xf8e1a15aba9398e019f0b49df1a4fde98ee17ae345cb5f6b5e2c27f5033e8ce7"
          ],
          "data": "0x0000000000000000000000000000000000000000000000000000000000000003",
          "blockHash": "0xce69ee0b5f6cb47424fc29794882365f6471bcc85db5685b4379878c26cefc32",
          "blockNumber": "0x148c532",
          "blockTimestamp": "0x684d5895",
          "transactionHash": "0x591057d846e0e394b268e7f4606f659af9ddb010f43cbcd0e760a775dc2810d6",
          "transactionIndex": "0x33",
          "logIndex": "0xa3",
          "removed": false
        }
      ],
      "logsBloom": "0x00000000000000000000000000000000000000000000008000000000000000000000000000000000000000000000000000000000020000000000000000004001000000000000000000000008000000000000000020000000000000000000000000000000020000000000000000000800000000000000000000000010000000000000000000000000000000000000000008000000000000000000000000000000000000000000000000000000000000002000000000800000000000000000408000000002000000000000000000000000000000000000000000000008000020000000000000000000200000000000000000000000000000000000000000000000",
      "type": "0x2",
      "transactionHash": "0x591057d846e0e394b268e7f4606f659af9ddb010f43cbcd0e760a775dc2810d6",
      "transactionIndex": "0x33",
      "blockHash": "0xce69ee0b5f6cb47424fc29794882365f6471bcc85db5685b4379878c26cefc32",
      "blockNumber": "0x148c532",
      "gasUsed": "0x36040",
      "effectiveGasPrice": "0xba43b7401",
      "from": "0xeed4ce443fe6e5b7372f87444d5d263a349797f8",
      "to": "0x245caf8ae9aba95cb5fa51705d51a4e75f73cf2b",
      "contractAddress": null
    }
  ],
  "libraries": [],
  "pending": [],
  "returns": {},
  "timestamp": 1749899414,
  "chain": 10143,
  "commit": "2375e4b"
}