{
  "transactions": [
    {
      "hash": "0xd78523878b5c8e4ea92bde04e0a14949cf3272f46dddbf27ac3cf42d469ecbcf",
      "transactionType": "CALL",
      "contractName": null,
      "contractAddress": "0x245caf8ae9aba95cb5fa51705d51a4e75f73cf2b",
      "function": "mintNFT(address,string)",
      "arguments": [
        "0xEEd4CE443FE6e5b7372f87444d5d263A349797F8",
        "ipfs://bafybeibrcc4wz23kaxuwkhyf6iz4bg3bn3pkrbczstao4kxsmnwuk3eke4/1.json"
      ],
      "transaction": {
        "from": "0xeed4ce443fe6e5b7372f87444d5d263a349797f8",
        "to": "0x245caf8ae9aba95cb5fa51705d51a4e75f73cf2b",
        "gas": "0x36040",
        "value": "0x0",
        "input": "0xeacabe14000000000000000000000000eed4ce443fe6e5b7372f87444d5d263a349797f800000000000000000000000000000000000000000000000000000000000000400000000000000000000000000000000000000000000000000000000000000049697066733a2f2f626166796265696272636334777a32336b617875776b68796636697a34626733626e33706b7262637a7374616f346b78736d6e77756b33656b65342f312e6a736f6e0000000000000000000000000000000000000000000000",
        "nonce": "0xa",
        "chainId": "0x279f"
      },
      "additionalContracts": [],
      "isFixedGasLimit": false
    }
  ],
  "receipts": [
    {
      "status": "0x1",
      "cumulativeGasUsed": "0x9953f1",
      "logs": [
        {
          "address": "0x245caf8ae9aba95cb5fa51705d51a4e75f73cf2b",
          "topics": [
            "0xddf252ad1be2c89b69c2b068fc378daa952ba7f163c4a11628f55a4df523b3ef",
            "0x0000000000000000000000000000000000000000000000000000000000000000",
            "0x000000000000000000000000eed4ce443fe6e5b7372f87444d5d263a349797f8",
            "0x0000000000000000000000000000000000000000000000000000000000000006"
          ],
          "data": "0x",
          "blockHash": "0x3545cdc7bd6bcf8849206002b3efda4d67993fa4b580684c07140a0e48eb8fec",
          "blockNumber": "0x148ce46",
          "blockTimestamp": "0x684d5dcb",
          "transactionHash": "0xd78523878b5c8e4ea92bde04e0a14949cf3272f46dddbf27ac3cf42d469ecbcf",
          "transactionIndex": "0x30",
          "logIndex": "0x68",
          "removed": false
        },
        {
          "address": "0x245caf8ae9aba95cb5fa51705d51a4e75f73cf2b",
          "topics": [
            "0xf8e1a15aba9398e019f0b49df1a4fde98ee17ae345cb5f6b5e2c27f5033e8ce7"
          ],
          "data": "0x0000000000000000000000000000000000000000000000000000000000000006",
          "blockHash": "0x3545cdc7bd6bcf8849206002b3efda4d67993fa4b580684c07140a0e48eb8fec",
          "blockNumber": "0x148ce46",
          "blockTimestamp": "0x684d5dcb",
          "transactionHash": "0xd78523878b5c8e4ea92bde04e0a14949cf3272f46dddbf27ac3cf42d469ecbcf",
          "transactionIndex": "0x30",
          "logIndex": "0x69",
          "removed": false
        }
      ],
      "logsBloom": "0x00000000000000000000000000000000000000000000008000000000000000000000000000000000000000000000000000000000000400000000000000004001000000000000000000000008000000000000000020000000000000000000000000000000020000000000000000000800000000000000000000000010000000000000000400000000000000000000000008000000000000000000000000000000000000000000000000000000000000002000000000000000000000080000008000000002000000000000000000000000000000000000000000000008000020000000000000000000200000000000000000000000000000000000000000000000",
      "type": "0x2",
      "transactionHash": "0xd78523878b5c8e4ea92bde04e0a14949cf3272f46dddbf27ac3cf42d469ecbcf",
      "transactionIndex": "0x30",
      "blockHash": "0x3545cdc7bd6bcf8849206002b3efda4d67993fa4b580684c07140a0e48eb8fec",
      "blockNumber": "0x148ce46",
      "gasUsed": "0x36040",
      "effectiveGasPrice": "0xba43b7401",
      "from": "0xeed4ce443fe6e5b7372f87444d5d263a349797f8",
      "to": "0x245caf8ae9aba95cb5fa51705d51a4e75f73cf2b",
      "contractAddress": null
    }
  ],
  "libraries": [],
  "pending": [],
  "returns": {},
  "timestamp": 1749900749,
  "chain": 10143,
  "commit": "2375e4b"
}